:020000040800F2
:100000000050002009030008F1020008F302000874
:10001000F5020008F7020008F902000800000000DD
:10002000000000000000000000000000FB020008CB
:10003000FD02000800000000FF02000801030008A4
:100040005103000851030008510300085103000840
:100050005103000851030008510300085103000830
:100060005103000851030008510300085103000820
:100070005103000851030008510300085103000810
:100080005103000851030008510300085103000800
:1000900051030008510300085103000851030008F0
:1000A00051030008510300085103000851030008E0
:1000B00051030008510300085103000851030008D0
:1000C00051030008510300085103000851030008C0
:1000D00051030008510300085103000851030008B0
:1000E00051030008510300085103000800000000FC
:1000F0000000000000000000000000000000000000
:0C01000000000000000000005FF808F1A3
:10010C0010B5054C237833B9044B13B10448AFF345
:10011C0000800123237010BD280000200000000087
:10012C00BC0D000808B5034B1BB103490348AFF3E2
:10013C00008008BD000000002C000020BC0D000851
:10014C0000B591B02422002107A800F004FE14226F
:10015C00002101A800F0FFFD0223012106931023CA
:10016C0006A8CDE90A1300F061FA014608B172B68F
:10017C00FEE70F23CDE90300CDE90130059001A87E
:10018C0000F016FC08B172B6FEE711B05DF804FB86
:10019C0007B500F0FDF8FFF7D3FF1D4B1D4C9A6916
:1001AC000C2542F020029A619A69204602F0200246
:1001BC000092009A9A6942F004029A619B69164A6D
:1001CC0003F004030193019B4FF41653C4E900237D
:1001DC000023C4E90233C4E905532361E36100F051
:1001EC003DFD08B172B6FEE719230A220B492046E1
:1001FC0000F063FD192303220949204600F05DFD40
:10020C0019232A462046074900F057FDFEE700BF98
:10021C000010024044000020003801400F00002074
:10022C000C000020000000200E4B82B09A6942F0B6
:10023C0001029A619A6902F001020092009ADA694D
:10024C0042F08052DA61DB69074A03F08053019374
:10025C00019B536823F0E06343F08063536002B06A
:10026C00704700BF001002400000014010B504466A
:10027C0086B01022002102A800F06DFD2268174BF9
:10028C009A4228D103F558439A69154842F48042A2
:10029C009A619A6902A902F480420092009A9A69C2
:1002AC0042F004029A619B694FF4007203F004035C
:1002BC000193019B0223CDE902230323059300F054
:1002CC00E1F84FF4806100230548CDE9021302A93F
:1002DC00049300F0D7F806B010BD00BF0038014001
:1002EC0000080140FEE7FEE7FEE7FEE7FEE7704789
:1002FC007047704700F05EB870470000FFF7FCFFD6
:10030C000B480C490C4A002302E0D458C450043367
:10031C00C4188C42F9D3094A094C002301E013603C
:10032C000432A242FBD300F01FFDFFF731FF7047F0
:10033C000000002028000020080E000828000020E3
:10034C0090000020FEE7000038B50E4B05461A78E9
:10035C004FF47A73B3FBF2F30B4A1068B0FBF3F073
:10036C0000F07CF8044658B90F2D09D802462946EE
:10037C004FF0FF3000F042F82046044B1D6038BDB2
:10038C000120FCE7200000201C000020240000209D
:10039C00074A08B51368032043F01003136000F0FC
:1003AC001BF80F20FFF7D0FFFFF73EFF002008BD22
:1003BC0000200240034A044B11681B780B44136065
:1003CC00704700BF8C00002020000020014B1868F3
:1003DC00704700BF8C00002007490302CA6803F471
:1003EC00E06322F4E0621204120C134343F0BF6387
:1003FC0043F40033CB60704700ED00E0154B30B593
:10040C00DC68C4F30224C4F10703251D042B28BFA8
:10041C000423062D4FF0FF3594BF0024033C05FA4E
:10042C0003F321EA0303A54022EA0502A3400028B6
:10043C0043EA0203ACBF00F16040074A4FEA0313E2
:10044C00DBB2ABBF00F5614000F00F0080F8003369
:10045C00135430BD00ED00E014ED00E00138B0F1B4
:10046C00807F0BD24FF0E023F021054A586182F8CF
:10047C0023100020072298611A61704701207047F1
:10048C0000ED00E02DE9F74F00244FF00F0E26464B
:10049C00DFF884C1614B00F104080A6832FA06F5F2
:1004AC0002D103B0BDE8F08F012505FA06F702EA88
:1004BC00070537EA020276D14A68032A07D8013ABF
:1004CC00022A00F28380DFE802F091969C00122A47
:1004DC0000F0948069D8112A00F08A80FF2D94BF17
:1004EC008146C1464FEA8602D9F8007088BF203A8F
:1004FC000EFA02FA27EA0A0704FA02F21743C9F8BD
:10050C000070D1F8049019F0805F4CD0DCF8182002
:10051C0026F0030742F00102CCF81820DCF8182072
:10052C0007F1804702F00102019207F5803706F0CF
:10053C00030A019A4FEA8A0ABA680EFA0AFB22EAFF
:10054C000B0B374A904260D002F5806290425ED02D
:10055C0002F5806290425CD002F58062904214BF3A
:10056C000422032202FA0AF242EA0B02BA609A68E7
:10057C0019F4801F14BF2A43AA439A60DA6819F44D
:10058C00001F14BF2A43AA43DA605A6819F4003FCB
:10059C0014BF2A43AA435A601A6819F4803F14BF47
:1005AC002A43AA431A60013677E7DFF878904A4568
:1005BC000CD014D8A9F580194A4507D009F5702933
:1005CC004A4503D0A9F580194A4587D18A68D2B12A
:1005DC00012A4FF008040CBF076147617EE7DFF882
:1005EC0048904A45F2D009F58039EDE7CC6875E7BB
:1005FC00CC68043472E7CC6808346FE7CC680C34F0
:10060C006CE700246AE7042468E70022AAE70122C9
:10061C00A8E70222A6E700BF001002400004014038
:10062C000008014000002210000031102DE9F341B8
:10063C00054638B30368DB0710D42B689F075ED4DC
:10064C002B68190700F195802B685A0700F1C180BF
:10065C00EB69002B40F02C81002029E0904C636862
:10066C0003F00C03042B07D0636803F00C03082B76
:10067C000AD16368DE0307D523689C03DDD56B685C
:10068C00002BDAD1012013E06B68B3F5803F12D157
:10069C00236843F480332360FFF798FE06462368F3
:1006AC009803CAD4FFF792FE801B6428F7D9032065
:1006BC0002B0BDE8F0819BB9236823F4803323603A
:1006CC00236823F480232360FFF780FE064623680B
:1006DC009903B2D5FFF77AFE801B6428F7D9E6E7B9
:1006EC00B3F5A02F236803D143F480232360CFE715
:1006FC0023F480332360236823F48023CBE7684CF6
:10070C00636813F00C0F07D0636803F00C03082B1D
:10071C0010D16368DA030DD423689B0702D52B69CB
:10072C00012BAFD123686A6923F0F80343EAC203B3
:10073C00236085E72A695B4B6AB101221A60FFF7D7
:10074C0045FE064623689F07ECD4FFF73FFE801B4F
:10075C000228F7D9ABE71A60FFF738FE0646236884
:10076C0098077FF56DAFFFF731FE801B0228F6D995
:10077C009DE7AA694A4E4B4BE2B10122C3F8802493
:10078C00FFF724FE0446736A9B070DD54FF4FA520B
:10079C00454B1B68B3FBF2F3019300BF019B5A1E40
:1007AC000192002BF9D14FE7FFF710FE001B022836
:1007BC00E9D97CE7C3F88024FFF708FE0446736A86
:1007CC009F077FF541AFFFF701FE001B0228F6D90A
:1007DC006DE7334CE369D80024D40127E36943F077
:1007EC008053E361E36903F080530093009B2F4E29
:1007FC003368D90518D5EB68012B26D1236A43F051
:10080C0001032362FFF7E2FD41F288380646236AB2
:10081C009B073FD5002F3FF41BAFE36923F08053B8
:10082C00E36115E70027E2E7336843F48073336034
:10083C00FFF7CCFD80463368DA05DCD4FFF7C6FD44
:10084C00A0EB08006428F6D931E7ABB9236A41F272
:10085C00883823F001032362236A23F00403236204
:10086C00FFF7B4FD0646236A9807D3D5FFF7AEFD14
:10087C00801B4045F7D91AE7052B236A03D143F0B7
:10088C0004032362BAE723F001032362236A23F0F3
:10089C000403B6E7FFF79AFD801B4045B7D906E77E
:1008AC0000100240000042421C000020007000407A
:1008BC002A4C626802F00C02082A3ED00022022B5D
:1008CC00274B1A662CD1FFF781FD06462368990148
:1008DC0020D42B6AB3F5803F05D16268A96822F455
:1008EC0000320A436260696A62680B4322F4741234
:1008FC001343012263601A4B1A66FFF767FD054626
:10090C0023689A013FF5A8AEFFF760FD401B022853
:10091C00F6D9CCE6FFF75AFD801B0228D6D9C6E6DD
:10092C00FFF754FD054623689B017FF595AEFFF755
:10093C004DFD401B0228F6D9B9E6012B3FF4A2AEBF
:10094C0060682B6A00F480329A427FF49BAE6B6A2B
:10095C0000F47010C01A18BF0120A9E60010024064
:10096C00000042420D4A536803F00C01082912D1D1
:10097C000B48C3F38341DB03405C09D55368094A38
:10098C00C3F340435043084AD35CB0FBF3F07047C9
:10099C00064B584370470348704700BF0010024095
:1009AC00EE0D000800127A00EC0D000800093D0065
:1009BC002DE9F0410D46044610B90120BDE8F08147
:1009CC00444A136803F007038B4228D321688E072F
:1009DC0030D4CA0743D43F4A136803F00703AB4231
:1009EC0065D822683C4D12F0040F6CD1130706D564
:1009FC006B68226923F4605343EAC2036B60FFF710
:100A0C00B1FF6B68354AC3F30313D35CD840344B46
:100A1C001860344B1868FFF797FC0020CEE713687A
:100A2C0023F007030B431360136803F007038B4297
:100A3C00C3D1CBE7284B11F0040F1EBF5A6842F408
:100A4C00E0625A60080742BF5A6842F460525A602A
:100A5C005A68A06822F0F00202435A60B9E7626853
:100A6C001D4E012A33681AD113F4003FA5D07368C8
:100A7C0041F2883823F0030313437360FFF7A6FC9D
:100A8C0007467368626803F00C03B3EB820FA2D0C5
:100A9C00FFF79CFCC01B4045F3D903208EE7022ACC
:100AAC0002D113F0007FE1E713F0020FDEE71368C9
:100ABC0023F007032B431360136803F00703AB42C7
:100ACC007FF47BAF8DE76B68E16823F4E0630B4345
:100ADC006B608BE70020024000100240DC0D000828
:100AEC001C00002024000020044B054A5B68C3F363
:100AFC000223D35C034A1068D840704700100240B0
:100B0C00D40D00081C000020044B054A5B68C3F39D
:100B1C00C223D35C034A1068D840704700100240CF
:100B2C00D40D00081C000020026802F10C0353E8ED
:100B3C00003F23F490730C3242E800310268002924
:100B4C00F2D102F1140353E8003F23F0010302F148
:100B5C00140C4CE800310029F3D1036B012B0BD1A1
:100B6C0002F10C0353E8003F23F0100302F10C0CCC
:100B7C004CE800310029F3D1202380F842300023C7
:100B8C000363704710B504460368C1681A6922F400
:100B9C0040520A431A6182680069D968024360694D
:100BAC0021F4B05121F00C0102430A43DA605A6976
:100BBC00A16922F440720A435A610E4A934215D13C
:100BCC00FFF7A2FF19234343626820689200B3FB2E
:100BDC00F2F36422B3FBF2F102FB11331B0132334B
:100BEC00B3FBF2F303EB0113836010BDFFF77CFF43
:100BFC00E8E700BF00380140F7B505460C4617463C
:100C0C001E462A68136834EA030301D1002021E050
:100C1C00701CF7D0FFF7DAFBC01B86421CD3DEB189
:100C2C002B68DA685107ECD5802CEAD0402CE8D040
:100C3C001A681207E5D5002401941A682846019217
:100C4C005B680193019BFFF76FFF082301206B6426
:100C5C0085F8404003B0F0BD0320FBE710B5044617
:100C6C0048B390F8413003F0FF021BB980F84020E4
:100C7C00FFF7FCFA2423226884F84130D36820461D
:100C8C0023F40053D360FFF77DFF236800201A691B
:100C9C0022F490421A615A6922F02A025A61DA68E7
:100CAC0042F40052DA602023606484F8413084F806
:100CBC004230606310BD0120FCE72DE9F8439846F3
:100CCC0090F841300446202B0E4617463FD10029A0
:100CDC003FD0002A3DD021230025456480F84130C7
:100CEC00FFF774FBA3688146B3F5805FA784E784A4
:100CFC0003D123690BB935461E46E38C9BB253B91D
:100D0C0043464A4640212046FFF776FF202350B940
:100D1C0084F841300AE043464A4680212046FFF7DA
:100D2C006BFF28B12023032084F84130BDE8F88301
:100D3C0022684EB935F8023BC3F308035360E18CCB
:100D4C00013989B2E184D8E716F8013BF6E70220B5
:100D5C00ECE70120EAE703460244934200D17047D6
:100D6C0003F8011BF9E7000070B500260C4D0D4C83
:100D7C00641BA410A64209D100F01AF800260A4DF3
:100D8C000A4C641BA410A64205D170BD55F8043B57
:100D9C0098470136EEE755F8043B98470136F2E7E1
:100DAC00000E0008000E0008000E0008040E0008DB
:100DBC00F8B500BFF8BC08BC9E467047F8B500BF3C
:080DCC00F8BC08BC9E4670470C
:100DD4000000000001020304000000000000000005
:100DE40001020304060708090102020304050607B9
:0C0DF40008090A0B0C0D0E0F1010000077
:040E000031010008B4
:040E04000D010008D4
:100E080057656C636F6D65204F6D69000D0A00486A
:100E1800656C6C6F204F6D690000000000127A004D
:080E28000100000010000000B1
:0400000508000309E3
:00000001FF
